:100000008529FF3FFF3FFF3F013003138312A60006
:10001000102170088312A4007108A500023071023B
:10002000031D14280030700203182C282408003CFB
:10003000F0002508031C013F023CF1000130F400F0
:10004000740803192828F10CF00CF113FF3F212844
:100050007008A000A2014128A00100302402F00095
:100060000230031C013F2502F1000130F400740846
:1000700003193F28F10CF00CF113FF3F38287008EA
:10008000A2002108200603194A282008A600D7202C
:100090002008A10023082206031953282208A600DD
:1000A0009E202208A300080003138312FB01FA011B
:1000B000F9018030F800FD01F11F6428F109F00911
:1000C000F00A0319F10AFD0AF51F6C28F509F40975
:1000D000F40A0319F50AFD0AF10CF00C031C792847
:1000E0007408F90775080318750FFA070318FB0A57
:1000F0000310F01F81287408FA070318FB0A75081B
:10010000FB07FB0CFA0CF90CF80C031C6C287D1C8B
:100110009428FB09FA09F909F809F80A0319F90AF8
:100120000319FA0A0319FB0A7B08F3007A08F200A4
:100130007908F1007808F000000008000313831626
:100140001208013FF000F1010318F10A831226089A
:10015000F400F50154200630F2007008F400710834
:10016000F50072080319B928F50CF40CF513FF3FDC
:10017000B2287408F000F00D7010F00D7010F00D42
:100180007010F00D701030307005F3007408F0003E
:100190007508F100F10CF00CF113F10CF00CF113F7
:1001A00070089B000F309D0573089D040800031321
:1001B00083161208013FF000F1010318F10A8312BF
:1001C0002608F400F50154200630F2007008F4000F
:1001D0007108F50072080319F228F50CF40CF513F8
:1001E000FF3FEB287408F000F00D7010F00D701058
:1001F000F00D7010F00D701030307005F3007408C1
:10020000F0007508F100F10CF00CF113F10CF00C9A
:10021000F113700895000F309705730897040800D4
:10022000031383129F01C0309F0483161F179F176B
:1002300083122608F000F00D7010F00D7010F00D14
:10024000701070089F041F149C211F151F1D2A2960
:10025000000026291F100830F2001E08F000F101EE
:10026000720803193829F00DF10D7010FF3F312984
:1002700083161E08F0040030F104080080300313D8
:1002800083169F00FF308500831286018316860146
:1002900083128801831688018312870183168701E0
:1002A0008312121092101214F93083169200A921B1
:1002B000121092101214F93083169200A321A0019B
:1002C000A101A201A301A401A50108000313831247
:1002D00086011030FA00FA0B6B2900000F308600FF
:1002E000C730FA00FA0B72290000000086011030B6
:1002F000FA00FA0B79290000F03086008130FA000C
:10030000FA0B80290000000008003E218C21942176
:100310006621042088298B29031383160711831271
:1003200012150C30970408000313831687108312EC
:1003300012150C309D040800073003138312FA00D5
:10034000FA0BA0290800031383129B011D129D12B2
:100350000800031383129501171297120800FF3F3C
:02400E00793FF8
:00000001FF
